{
  "contractName": "FixedRateDeposit",
  "abi": [
    {
      "inputs": [
        {
          "internalType": "address",
          "name": "_kycAddress",
          "type": "address"
        },
        {
          "internalType": "address",
          "name": "_regulatorAddress",
          "type": "address"
        }
      ],
      "stateMutability": "nonpayable",
      "type": "constructor"
    },
    {
      "anonymous": false,
      "inputs": [
        {
          "indexed": true,
          "internalType": "address",
          "name": "depositor",
          "type": "address"
        },
        {
          "indexed": false,
          "internalType": "uint256",
          "name": "amount",
          "type": "uint256"
        },
        {
          "indexed": false,
          "internalType": "uint256",
          "name": "startDate",
          "type": "uint256"
        },
        {
          "indexed": false,
          "internalType": "uint256",
          "name": "endDate",
          "type": "uint256"
        }
      ],
      "name": "DepositCreated",
      "type": "event"
    },
    {
      "anonymous": false,
      "inputs": [
        {
          "indexed": true,
          "internalType": "address",
          "name": "depositor",
          "type": "address"
        },
        {
          "indexed": false,
          "internalType": "uint256",
          "name": "amount",
          "type": "uint256"
        },
        {
          "indexed": false,
          "internalType": "uint256",
          "name": "interest",
          "type": "uint256"
        }
      ],
      "name": "DepositMatured",
      "type": "event"
    },
    {
      "inputs": [
        {
          "internalType": "uint256",
          "name": "",
          "type": "uint256"
        }
      ],
      "name": "depositors",
      "outputs": [
        {
          "internalType": "address",
          "name": "",
          "type": "address"
        }
      ],
      "stateMutability": "view",
      "type": "function"
    },
    {
      "inputs": [
        {
          "internalType": "address",
          "name": "",
          "type": "address"
        },
        {
          "internalType": "uint256",
          "name": "",
          "type": "uint256"
        }
      ],
      "name": "deposits",
      "outputs": [
        {
          "internalType": "address",
          "name": "depositor",
          "type": "address"
        },
        {
          "internalType": "uint256",
          "name": "amount",
          "type": "uint256"
        },
        {
          "internalType": "uint256",
          "name": "startDate",
          "type": "uint256"
        },
        {
          "internalType": "uint256",
          "name": "endDate",
          "type": "uint256"
        },
        {
          "internalType": "uint256",
          "name": "interestRate",
          "type": "uint256"
        },
        {
          "internalType": "bool",
          "name": "isClosed",
          "type": "bool"
        }
      ],
      "stateMutability": "view",
      "type": "function"
    },
    {
      "inputs": [],
      "name": "fixedInterestRate",
      "outputs": [
        {
          "internalType": "uint256",
          "name": "",
          "type": "uint256"
        }
      ],
      "stateMutability": "view",
      "type": "function"
    },
    {
      "inputs": [],
      "name": "kyc",
      "outputs": [
        {
          "internalType": "contract KYC",
          "name": "",
          "type": "address"
        }
      ],
      "stateMutability": "view",
      "type": "function"
    },
    {
      "inputs": [],
      "name": "maxDeposit",
      "outputs": [
        {
          "internalType": "uint256",
          "name": "",
          "type": "uint256"
        }
      ],
      "stateMutability": "view",
      "type": "function"
    },
    {
      "inputs": [],
      "name": "minDeposit",
      "outputs": [
        {
          "internalType": "uint256",
          "name": "",
          "type": "uint256"
        }
      ],
      "stateMutability": "view",
      "type": "function"
    },
    {
      "inputs": [],
      "name": "regulator",
      "outputs": [
        {
          "internalType": "contract Regulator",
          "name": "",
          "type": "address"
        }
      ],
      "stateMutability": "view",
      "type": "function"
    },
    {
      "inputs": [
        {
          "internalType": "uint256",
          "name": "_amount",
          "type": "uint256"
        },
        {
          "internalType": "uint256",
          "name": "_termInDays",
          "type": "uint256"
        }
      ],
      "name": "createDeposit",
      "outputs": [],
      "stateMutability": "nonpayable",
      "type": "function"
    },
    {
      "inputs": [
        {
          "internalType": "uint256",
          "name": "_amount",
          "type": "uint256"
        },
        {
          "internalType": "uint256",
          "name": "_termInDays",
          "type": "uint256"
        }
      ],
      "name": "calculateInterest",
      "outputs": [
        {
          "internalType": "uint256",
          "name": "",
          "type": "uint256"
        }
      ],
      "stateMutability": "view",
      "type": "function"
    },
    {
      "inputs": [
        {
          "internalType": "uint256",
          "name": "_index",
          "type": "uint256"
        }
      ],
      "name": "withdrawMaturedDeposit",
      "outputs": [],
      "stateMutability": "nonpayable",
      "type": "function"
    },
    {
      "inputs": [],
      "name": "getTotalDepositsAndLiabilities",
      "outputs": [
        {
          "internalType": "uint256",
          "name": "totalDeposits",
          "type": "uint256"
        },
        {
          "internalType": "uint256",
          "name": "totalLiabilities",
          "type": "uint256"
        }
      ],
      "stateMutability": "view",
      "type": "function"
    }
  ],
  "bytecode": "0x608060405269043c33c19375648000006002556911ffdbf6b2b2eb2000006003556101c26004553480156200003357600080fd5b50604051620014aa380380620014aa8339818101604052810190620000599190620000fa565b81600560006101000a81548173ffffffffffffffffffffffffffffffffffffffff021916908373ffffffffffffffffffffffffffffffffffffffff16021790555080600660006101000a81548173ffffffffffffffffffffffffffffffffffffffff021916908373ffffffffffffffffffffffffffffffffffffffff160217905550505062000189565b600081519050620000f4816200016f565b92915050565b600080604083850312156200010e57600080fd5b60006200011e85828601620000e3565b92505060206200013185828601620000e3565b9150509250929050565b600062000148826200014f565b9050919050565b600073ffffffffffffffffffffffffffffffffffffffff82169050919050565b6200017a816200013b565b81146200018657600080fd5b50565b61131180620001996000396000f3fe608060405234801561001057600080fd5b50600436106100a95760003560e01c8063b18e71f211610071578063b18e71f214610145578063bc10e26014610161578063d6d681771461017d578063dd8fee14146101b2578063e4b2fb79146101d0578063efdd7c0714610200576100a9565b806331f02964146100ae57806341b3d185146100cd5780636083e59a146100eb578063892983c21461010957806390d6b45f14610127575b600080fd5b6100b6610230565b6040516100c4929190610fd9565b60405180910390f35b6100d56104b9565b6040516100e29190610fbe565b60405180910390f35b6100f36104bf565b6040516101009190610fbe565b60405180910390f35b6101116104c5565b60405161011e9190610fbe565b60405180910390f35b61012f6104cb565b60405161013c9190610ee8565b60405180910390f35b61015f600480360381019061015a9190610ca5565b6104f1565b005b61017b60048036038101906101769190610c7c565b610896565b005b61019760048036038101906101929190610c17565b610abc565b6040516101a996959493929190610e87565b60405180910390f35b6101ba610b42565b6040516101c79190610f03565b60405180910390f35b6101ea60048036038101906101e59190610c7c565b610b68565b6040516101f79190610e6c565b60405180910390f35b61021a60048036038101906102159190610ca5565b610ba7565b6040516102279190610fbe565b60405180910390f35b60008060005b6001805490508110156104b45760006001828154811061027f577f4e487b7100000000000000000000000000000000000000000000000000000000600052603260045260246000fd5b9060005260206000200160009054906101000a900473ffffffffffffffffffffffffffffffffffffffff16905060005b6000808373ffffffffffffffffffffffffffffffffffffffff1673ffffffffffffffffffffffffffffffffffffffff1681526020019081526020016000208054905081101561049f5760008060008473ffffffffffffffffffffffffffffffffffffffff1673ffffffffffffffffffffffffffffffffffffffff1681526020019081526020016000208281548110610370577f4e487b7100000000000000000000000000000000000000000000000000000000600052603260045260246000fd5b90600052602060002090600602016040518060c00160405290816000820160009054906101000a900473ffffffffffffffffffffffffffffffffffffffff1673ffffffffffffffffffffffffffffffffffffffff1673ffffffffffffffffffffffffffffffffffffffff168152602001600182015481526020016002820154815260200160038201548152602001600482015481526020016005820160009054906101000a900460ff16151515158152505090508060a0015161048b5780602001518661043d919061104a565b955061046e8160200151620151808360400151846060015161045f919061112b565b61046991906110a0565b610ba7565b816020015161047d919061104a565b85610488919061104a565b94505b508080610497906111ef565b9150506102af565b505080806104ac906111ef565b915050610236565b509091565b60025481565b60035481565b60045481565b600560009054906101000a900473ffffffffffffffffffffffffffffffffffffffff1681565b600560009054906101000a900473ffffffffffffffffffffffffffffffffffffffff1673ffffffffffffffffffffffffffffffffffffffff1663c824ecfa336040518263ffffffff1660e01b815260040161054c9190610e6c565b60206040518083038186803b15801561056457600080fd5b505afa158015610578573d6000803e3d6000fd5b505050506040513d601f19601f8201168201806040525081019061059c9190610c53565b6105db576040517f08c379a00000000000000000000000000000000000000000000000000000000081526004016105d290610f7e565b60405180910390fd5b60025482101580156105ef57506003548211155b61062e576040517f08c379a000000000000000000000000000000000000000000000000000000000815260040161062590610f5e565b60405180910390fd5b61016d81148061063f57506102da81145b61067e576040517f08c379a000000000000000000000000000000000000000000000000000000000815260040161067590610f3e565b60405180910390fd5b6000620151808261068f91906110d1565b4261069a919061104a565b90506000803373ffffffffffffffffffffffffffffffffffffffff1673ffffffffffffffffffffffffffffffffffffffff1681526020019081526020016000206040518060c001604052803373ffffffffffffffffffffffffffffffffffffffff168152602001858152602001428152602001838152602001600454815260200160001515815250908060018154018082558091505060019003906000526020600020906006020160009091909190915060008201518160000160006101000a81548173ffffffffffffffffffffffffffffffffffffffff021916908373ffffffffffffffffffffffffffffffffffffffff1602179055506020820151816001015560408201518160020155606082015181600301556080820151816004015560a08201518160050160006101000a81548160ff02191690831515021790555050506001339080600181540180825580915050600190039060005260206000200160009091909190916101000a81548173ffffffffffffffffffffffffffffffffffffffff021916908373ffffffffffffffffffffffffffffffffffffffff1602179055503373ffffffffffffffffffffffffffffffffffffffff167ff811ab5e57a042e3e695bd443e567871efb7410da1bfe8d6f04bdfb36ca9330984428460405161088993929190611002565b60405180910390a2505050565b60008060003373ffffffffffffffffffffffffffffffffffffffff1673ffffffffffffffffffffffffffffffffffffffff168152602001908152602001600020828154811061090e577f4e487b7100000000000000000000000000000000000000000000000000000000600052603260045260246000fd5b906000526020600020906006020190508060030154421015610965576040517f08c379a000000000000000000000000000000000000000000000000000000000815260040161095c90610f1e565b60405180910390fd5b8060050160009054906101000a900460ff16156109b7576040517f08c379a00000000000000000000000000000000000000000000000000000000081526004016109ae90610f9e565b60405180910390fd5b60006109e8826001015462015180846002015485600301546109d9919061112b565b6109e391906110a0565b610ba7565b905060008183600101546109fc919061104a565b905060018360050160006101000a81548160ff0219169083151502179055503373ffffffffffffffffffffffffffffffffffffffff166108fc829081150290604051600060405180830381858888f19350505050158015610a61573d6000803e3d6000fd5b503373ffffffffffffffffffffffffffffffffffffffff167f6a444cb4db299e7e24a3180a80535ad520c4213b7d4adfd18756c6c646dd5e08846001015484604051610aae929190610fd9565b60405180910390a250505050565b60006020528160005260406000208181548110610ad857600080fd5b9060005260206000209060060201600091509150508060000160009054906101000a900473ffffffffffffffffffffffffffffffffffffffff16908060010154908060020154908060030154908060040154908060050160009054906101000a900460ff16905086565b600660009054906101000a900473ffffffffffffffffffffffffffffffffffffffff1681565b60018181548110610b7857600080fd5b906000526020600020016000915054906101000a900473ffffffffffffffffffffffffffffffffffffffff1681565b60006237b1d08260045485610bbc91906110d1565b610bc691906110d1565b610bd091906110a0565b905092915050565b600081359050610be781611296565b92915050565b600081519050610bfc816112ad565b92915050565b600081359050610c11816112c4565b92915050565b60008060408385031215610c2a57600080fd5b6000610c3885828601610bd8565b9250506020610c4985828601610c02565b9150509250929050565b600060208284031215610c6557600080fd5b6000610c7384828501610bed565b91505092915050565b600060208284031215610c8e57600080fd5b6000610c9c84828501610c02565b91505092915050565b60008060408385031215610cb857600080fd5b6000610cc685828601610c02565b9250506020610cd785828601610c02565b9150509250929050565b610cea8161115f565b82525050565b610cf981611171565b82525050565b610d08816111a7565b82525050565b610d17816111cb565b82525050565b6000610d2a601383611039565b91507f4465706f736974206e6f74206d617475726564000000000000000000000000006000830152602082019050919050565b6000610d6a600c83611039565b91507f496e76616c6964207465726d00000000000000000000000000000000000000006000830152602082019050919050565b6000610daa601683611039565b91507f496e76616c6964206465706f73697420616d6f756e74000000000000000000006000830152602082019050919050565b6000610dea601083611039565b91507f4b5943206e6f7420617070726f766564000000000000000000000000000000006000830152602082019050919050565b6000610e2a601683611039565b91507f4465706f73697420616c726561647920636c6f736564000000000000000000006000830152602082019050919050565b610e668161119d565b82525050565b6000602082019050610e816000830184610ce1565b92915050565b600060c082019050610e9c6000830189610ce1565b610ea96020830188610e5d565b610eb66040830187610e5d565b610ec36060830186610e5d565b610ed06080830185610e5d565b610edd60a0830184610cf0565b979650505050505050565b6000602082019050610efd6000830184610cff565b92915050565b6000602082019050610f186000830184610d0e565b92915050565b60006020820190508181036000830152610f3781610d1d565b9050919050565b60006020820190508181036000830152610f5781610d5d565b9050919050565b60006020820190508181036000830152610f7781610d9d565b9050919050565b60006020820190508181036000830152610f9781610ddd565b9050919050565b60006020820190508181036000830152610fb781610e1d565b9050919050565b6000602082019050610fd36000830184610e5d565b92915050565b6000604082019050610fee6000830185610e5d565b610ffb6020830184610e5d565b9392505050565b60006060820190506110176000830186610e5d565b6110246020830185610e5d565b6110316040830184610e5d565b949350505050565b600082825260208201905092915050565b60006110558261119d565b91506110608361119d565b9250827fffffffffffffffffffffffffffffffffffffffffffffffffffffffffffffffff0382111561109557611094611238565b5b828201905092915050565b60006110ab8261119d565b91506110b68361119d565b9250826110c6576110c5611267565b5b828204905092915050565b60006110dc8261119d565b91506110e78361119d565b9250817fffffffffffffffffffffffffffffffffffffffffffffffffffffffffffffffff04831182151516156111205761111f611238565b5b828202905092915050565b60006111368261119d565b91506111418361119d565b92508282101561115457611153611238565b5b828203905092915050565b600061116a8261117d565b9050919050565b60008115159050919050565b600073ffffffffffffffffffffffffffffffffffffffff82169050919050565b6000819050919050565b60006111b2826111b9565b9050919050565b60006111c48261117d565b9050919050565b60006111d6826111dd565b9050919050565b60006111e88261117d565b9050919050565b60006111fa8261119d565b91507fffffffffffffffffffffffffffffffffffffffffffffffffffffffffffffffff82141561122d5761122c611238565b5b600182019050919050565b7f4e487b7100000000000000000000000000000000000000000000000000000000600052601160045260246000fd5b7f4e487b7100000000000000000000000000000000000000000000000000000000600052601260045260246000fd5b61129f8161115f565b81146112aa57600080fd5b50565b6112b681611171565b81146112c157600080fd5b50565b6112cd8161119d565b81146112d857600080fd5b5056fea26469706673582212206913eca8e0c7b91dd20e3781451c50df27a428be1ace6a0e4b2cadac6404f13964736f6c63430008000033",
  "immutableReferences": {},
  "source": "// SPDX-License-Identifier: MIT\npragma solidity ^0.8.0;\n\nimport \"./KYC.sol\";\nimport \"./Regulator.sol\";\n\ncontract FixedRateDeposit {\n    struct Deposit {\n        address depositor;\n        uint256 amount;\n        uint256 startDate;\n        uint256 endDate;\n        uint256 interestRate;\n        bool isClosed;\n    }\n\n    mapping(address => Deposit[]) public deposits;\n    address[] public depositors;\n    uint256 public minDeposit = 20000 * 1e18; // 20,000 GBP in wei\n    uint256 public maxDeposit = 85000 * 1e18; // 85,000 GBP in wei\n    uint256 public fixedInterestRate = 450; // 4.50% APR\n    KYC public kyc;\n    Regulator public regulator;\n\n    event DepositCreated(address indexed depositor, uint256 amount, uint256 startDate, uint256 endDate);\n    event DepositMatured(address indexed depositor, uint256 amount, uint256 interest);\n\n    constructor(address _kycAddress, address _regulatorAddress) {\n        kyc = KYC(_kycAddress);\n        regulator = Regulator(_regulatorAddress);\n    }\n\n    function createDeposit(uint256 _amount, uint256 _termInDays) external {\n        require(kyc.isKycApproved(msg.sender), \"KYC not approved\");\n        require(_amount >= minDeposit && _amount <= maxDeposit, \"Invalid deposit amount\");\n        require(_termInDays == 365 || _termInDays == 730, \"Invalid term\"); // 1 or 2 years\n\n        uint256 endDate = block.timestamp + (_termInDays * 1 days);\n        deposits[msg.sender].push(Deposit(msg.sender, _amount, block.timestamp, endDate, fixedInterestRate, false));\n        depositors.push(msg.sender);\n\n        emit DepositCreated(msg.sender, _amount, block.timestamp, endDate);\n    }\n\n    function calculateInterest(uint256 _amount, uint256 _termInDays) public view returns (uint256) {\n        return (_amount * fixedInterestRate * _termInDays) / (365 * 10000);\n    }\n\n    function withdrawMaturedDeposit(uint256 _index) external {\n        Deposit storage deposit = deposits[msg.sender][_index];\n        require(block.timestamp >= deposit.endDate, \"Deposit not matured\");\n        require(!deposit.isClosed, \"Deposit already closed\");\n\n        uint256 interest = calculateInterest(deposit.amount, (deposit.endDate - deposit.startDate) / 1 days);\n        uint256 totalAmount = deposit.amount + interest;\n\n        deposit.isClosed = true;\n        payable(msg.sender).transfer(totalAmount);\n\n        emit DepositMatured(msg.sender, deposit.amount, interest);\n    }\n\n    function getTotalDepositsAndLiabilities() external view returns (uint256 totalDeposits, uint256 totalLiabilities) {\n        for (uint i = 0; i < depositors.length; i++) {\n            address depositor = depositors[i];\n            for (uint j = 0; j < deposits[depositor].length; j++) {\n                Deposit memory dep = deposits[depositor][j];\n                if (!dep.isClosed) {\n                    totalDeposits += dep.amount;\n                    totalLiabilities += dep.amount + calculateInterest(dep.amount, (dep.endDate - dep.startDate) / 1 days);\n                }\n            }\n        }\n    }\n}",
  "sourcePath": "/Users/kennethgjaeringen/Documents/NewBankCo/03_test_code/fixed-rate-deposit-project/backend/contracts/FixedRateDeposit.sol",
  "compiler": {
    "name": "solc",
    "version": "0.8.0+commit.c7dfd78e.Emscripten.clang"
  },
  "schemaVersion": "3.4.16",
  "updatedAt": "2024-07-06T21:33:15.888Z",
  "devdoc": {
    "kind": "dev",
    "methods": {},
    "version": 1
  },
  "userdoc": {
    "kind": "user",
    "methods": {},
    "version": 1
  }
}