{
  "contractName": "KYC",
  "abi": [
    {
      "inputs": [
        {
          "internalType": "address",
          "name": "_regulatorAddress",
          "type": "address"
        }
      ],
      "stateMutability": "nonpayable",
      "type": "constructor"
    },
    {
      "inputs": [
        {
          "internalType": "address",
          "name": "",
          "type": "address"
        }
      ],
      "name": "kycApproved",
      "outputs": [
        {
          "internalType": "bool",
          "name": "",
          "type": "bool"
        }
      ],
      "stateMutability": "view",
      "type": "function"
    },
    {
      "inputs": [],
      "name": "regulatorAddress",
      "outputs": [
        {
          "internalType": "address",
          "name": "",
          "type": "address"
        }
      ],
      "stateMutability": "view",
      "type": "function"
    },
    {
      "inputs": [
        {
          "internalType": "address",
          "name": "_customer",
          "type": "address"
        },
        {
          "internalType": "bool",
          "name": "_status",
          "type": "bool"
        }
      ],
      "name": "setKycStatus",
      "outputs": [],
      "stateMutability": "nonpayable",
      "type": "function"
    },
    {
      "inputs": [
        {
          "internalType": "address",
          "name": "_customer",
          "type": "address"
        }
      ],
      "name": "isKycApproved",
      "outputs": [
        {
          "internalType": "bool",
          "name": "",
          "type": "bool"
        }
      ],
      "stateMutability": "view",
      "type": "function"
    }
  ],
  "bytecode": "0x608060405234801561000f575f80fd5b5060405161058d38038061058d833981810160405281019061003191906100d5565b8060015f6101000a81548173ffffffffffffffffffffffffffffffffffffffff021916908373ffffffffffffffffffffffffffffffffffffffff16021790555050610100565b5f80fd5b5f73ffffffffffffffffffffffffffffffffffffffff82169050919050565b5f6100a48261007b565b9050919050565b6100b48161009a565b81146100be575f80fd5b50565b5f815190506100cf816100ab565b92915050565b5f602082840312156100ea576100e9610077565b5b5f6100f7848285016100c1565b91505092915050565b6104808061010d5f395ff3fe608060405234801561000f575f80fd5b506004361061004a575f3560e01c80633826b1ea1461004e5780636641cc641461006c578063c824ecfa1461009c578063e37a35c7146100cc575b5f80fd5b6100566100e8565b604051610063919061029f565b60405180910390f35b610086600480360381019061008191906102e6565b61010d565b604051610093919061032b565b60405180910390f35b6100b660048036038101906100b191906102e6565b610129565b6040516100c3919061032b565b60405180910390f35b6100e660048036038101906100e1919061036e565b61017a565b005b60015f9054906101000a900473ffffffffffffffffffffffffffffffffffffffff1681565b5f602052805f5260405f205f915054906101000a900460ff1681565b5f805f8373ffffffffffffffffffffffffffffffffffffffff1673ffffffffffffffffffffffffffffffffffffffff1681526020019081526020015f205f9054906101000a900460ff169050919050565b60015f9054906101000a900473ffffffffffffffffffffffffffffffffffffffff1673ffffffffffffffffffffffffffffffffffffffff163373ffffffffffffffffffffffffffffffffffffffff1614610209576040517f08c379a00000000000000000000000000000000000000000000000000000000081526004016102009061042c565b60405180910390fd5b805f808473ffffffffffffffffffffffffffffffffffffffff1673ffffffffffffffffffffffffffffffffffffffff1681526020019081526020015f205f6101000a81548160ff0219169083151502179055505050565b5f73ffffffffffffffffffffffffffffffffffffffff82169050919050565b5f61028982610260565b9050919050565b6102998161027f565b82525050565b5f6020820190506102b25f830184610290565b92915050565b5f80fd5b6102c58161027f565b81146102cf575f80fd5b50565b5f813590506102e0816102bc565b92915050565b5f602082840312156102fb576102fa6102b8565b5b5f610308848285016102d2565b91505092915050565b5f8115159050919050565b61032581610311565b82525050565b5f60208201905061033e5f83018461031c565b92915050565b61034d81610311565b8114610357575f80fd5b50565b5f8135905061036881610344565b92915050565b5f8060408385031215610384576103836102b8565b5b5f610391858286016102d2565b92505060206103a28582860161035a565b9150509250929050565b5f82825260208201905092915050565b7f4f6e6c7920726567756c61746f722063616e2063616c6c20746869732066756e5f8201527f6374696f6e000000000000000000000000000000000000000000000000000000602082015250565b5f6104166025836103ac565b9150610421826103bc565b604082019050919050565b5f6020820190508181035f8301526104438161040a565b905091905056fea264697066735822122098c70e5e7df82a5ccb28ba623bef900c44ac1692ae8fac7b5c802f97d1174b0364736f6c63430008150033",
  "immutableReferences": {},
  "source": "// SPDX-License-Identifier: MIT\npragma solidity ^0.8.0;\n\ncontract KYC {\n    mapping(address => bool) public kycApproved;\n    address public regulatorAddress;\n\n    modifier onlyRegulator() {\n        require(msg.sender == regulatorAddress, \"Only regulator can call this function\");\n        _;\n    }\n\n    constructor(address _regulatorAddress) {\n        regulatorAddress = _regulatorAddress;\n    }\n\n    function setKycStatus(address _customer, bool _status) external onlyRegulator {\n        kycApproved[_customer] = _status;\n    }\n\n    function isKycApproved(address _customer) external view returns (bool) {\n        return kycApproved[_customer];\n    }\n}",
  "sourcePath": "/Users/kennethgjaeringen/Documents/NewBankCo/03_test_code/fixed-rate-deposit-project/backend/contracts/KYC.sol",
  "compiler": {
    "name": "solc",
    "version": "0.8.21+commit.d9974bed.Emscripten.clang"
  },
  "schemaVersion": "3.4.16",
  "updatedAt": "2024-07-06T21:18:02.471Z",
  "devdoc": {
    "kind": "dev",
    "methods": {},
    "version": 1
  },
  "userdoc": {
    "kind": "user",
    "methods": {},
    "version": 1
  }
}