{
  "contractName": "Regulator",
  "abi": [
    {
      "inputs": [
        {
          "internalType": "address",
          "name": "_regulatorAddress",
          "type": "address"
        }
      ],
      "stateMutability": "nonpayable",
      "type": "constructor"
    },
    {
      "inputs": [],
      "name": "regulatorAddress",
      "outputs": [
        {
          "internalType": "address",
          "name": "",
          "type": "address"
        }
      ],
      "stateMutability": "view",
      "type": "function"
    },
    {
      "inputs": [],
      "name": "getRegulatorAddress",
      "outputs": [
        {
          "internalType": "address",
          "name": "",
          "type": "address"
        }
      ],
      "stateMutability": "view",
      "type": "function"
    },
    {
      "inputs": [
        {
          "internalType": "uint256",
          "name": "_newRate",
          "type": "uint256"
        }
      ],
      "name": "updateInterestRate",
      "outputs": [],
      "stateMutability": "nonpayable",
      "type": "function"
    },
    {
      "inputs": [],
      "name": "generateRegulatoryReport",
      "outputs": [],
      "stateMutability": "nonpayable",
      "type": "function"
    }
  ],
  "bytecode": "0x608060405234801561001057600080fd5b506040516104b73803806104b78339818101604052810190610032919061008d565b806000806101000a81548173ffffffffffffffffffffffffffffffffffffffff021916908373ffffffffffffffffffffffffffffffffffffffff160217905550506100ff565b600081519050610087816100e8565b92915050565b60006020828403121561009f57600080fd5b60006100ad84828501610078565b91505092915050565b60006100c1826100c8565b9050919050565b600073ffffffffffffffffffffffffffffffffffffffff82169050919050565b6100f1816100b6565b81146100fc57600080fd5b50565b6103a98061010e6000396000f3fe608060405234801561001057600080fd5b506004361061004c5760003560e01c80630fc77be91461005157806330e199791461006f5780633826b1ea14610079578063752a50a614610097575b600080fd5b6100596100b3565b60405161006691906102d4565b60405180910390f35b6100776100dc565b005b61008161016c565b60405161008e91906102d4565b60405180910390f35b6100b160048036038101906100ac9190610236565b610190565b005b60008060009054906101000a900473ffffffffffffffffffffffffffffffffffffffff16905090565b60008054906101000a900473ffffffffffffffffffffffffffffffffffffffff1673ffffffffffffffffffffffffffffffffffffffff163373ffffffffffffffffffffffffffffffffffffffff161461016a576040517f08c379a0000000000000000000000000000000000000000000000000000000008152600401610161906102ef565b60405180910390fd5b565b60008054906101000a900473ffffffffffffffffffffffffffffffffffffffff1681565b60008054906101000a900473ffffffffffffffffffffffffffffffffffffffff1673ffffffffffffffffffffffffffffffffffffffff163373ffffffffffffffffffffffffffffffffffffffff161461021e576040517f08c379a0000000000000000000000000000000000000000000000000000000008152600401610215906102ef565b60405180910390fd5b50565b6000813590506102308161035c565b92915050565b60006020828403121561024857600080fd5b600061025684828501610221565b91505092915050565b61026881610320565b82525050565b600061027b60258361030f565b91507f4f6e6c7920726567756c61746f722063616e2063616c6c20746869732066756e60008301527f6374696f6e0000000000000000000000000000000000000000000000000000006020830152604082019050919050565b60006020820190506102e9600083018461025f565b92915050565b600060208201905081810360008301526103088161026e565b9050919050565b600082825260208201905092915050565b600061032b82610332565b9050919050565b600073ffffffffffffffffffffffffffffffffffffffff82169050919050565b6000819050919050565b61036581610352565b811461037057600080fd5b5056fea2646970667358221220a990c2a69676ee398709d676058c163df68d602f06de48de17f3b54eca90436764736f6c63430008000033",
  "immutableReferences": {},
  "source": "// SPDX-License-Identifier: MIT\npragma solidity ^0.8.0;\n\ncontract Regulator {\n    address public regulatorAddress;\n\n    modifier onlyRegulator() {\n        require(msg.sender == regulatorAddress, \"Only regulator can call this function\");\n        _;\n    }\n\n    constructor(address _regulatorAddress) {\n        regulatorAddress = _regulatorAddress;\n    }\n\n    function getRegulatorAddress() external view returns (address) {\n        return regulatorAddress;\n    }\n\n    function updateInterestRate(uint256 _newRate) external onlyRegulator {\n        // Logic to update interest rate\n    }\n\n    function generateRegulatoryReport() external onlyRegulator {\n        // Logic to generate regulatory report\n    }\n}",
  "sourcePath": "/Users/kennethgjaeringen/Documents/NewBankCo/03_test_code/fixed-rate-deposit-project/backend/contracts/Regulator.sol",
  "compiler": {
    "name": "solc",
    "version": "0.8.0+commit.c7dfd78e.Emscripten.clang"
  },
  "schemaVersion": "3.4.16",
  "updatedAt": "2024-07-06T21:33:15.891Z",
  "devdoc": {
    "kind": "dev",
    "methods": {},
    "version": 1
  },
  "userdoc": {
    "kind": "user",
    "methods": {},
    "version": 1
  }
}